{
	"contracts/sample2_mapping.sol": {
		"Mapper": {
			"abi": [
				{
					"inputs": [
						{
							"internalType": "address",
							"name": "",
							"type": "address"
						}
					],
					"name": "favNums",
					"outputs": [
						{
							"internalType": "int256",
							"name": "",
							"type": "int256"
						}
					],
					"stateMutability": "view",
					"type": "function"
				},
				{
					"inputs": [],
					"name": "isRegistered",
					"outputs": [
						{
							"internalType": "bool",
							"name": "",
							"type": "bool"
						}
					],
					"stateMutability": "view",
					"type": "function"
				},
				{
					"inputs": [
						{
							"internalType": "int256",
							"name": "_favNum",
							"type": "int256"
						}
					],
					"name": "register",
					"outputs": [],
					"stateMutability": "nonpayable",
					"type": "function"
				},
				{
					"inputs": [
						{
							"internalType": "address",
							"name": "",
							"type": "address"
						}
					],
					"name": "registered",
					"outputs": [
						{
							"internalType": "bool",
							"name": "",
							"type": "bool"
						}
					],
					"stateMutability": "view",
					"type": "function"
				}
			],
			"devdoc": {
				"kind": "dev",
				"methods": {},
				"version": 1
			},
			"evm": {
				"assembly": "    /* \"contracts/sample2_mapping.sol\":66:967  contract Mapper{\r... */\n  mstore(0x40, 0x80)\n  callvalue\n  dup1\n  iszero\n  tag_1\n  jumpi\n  0x00\n  dup1\n  revert\ntag_1:\n  pop\n  dataSize(sub_0)\n  dup1\n  dataOffset(sub_0)\n  0x00\n  codecopy\n  0x00\n  return\nstop\n\nsub_0: assembly {\n        /* \"contracts/sample2_mapping.sol\":66:967  contract Mapper{\r... */\n      mstore(0x40, 0x80)\n      callvalue\n      dup1\n      iszero\n      tag_1\n      jumpi\n      0x00\n      dup1\n      revert\n    tag_1:\n      pop\n      jumpi(tag_2, lt(calldatasize, 0x04))\n      shr(0xe0, calldataload(0x00))\n      dup1\n      0x22366844\n      eq\n      tag_3\n      jumpi\n      dup1\n      0xb2dd5c07\n      eq\n      tag_4\n      jumpi\n      dup1\n      0xcce0b6a1\n      eq\n      tag_5\n      jumpi\n      dup1\n      0xe6059f96\n      eq\n      tag_6\n      jumpi\n    tag_2:\n      0x00\n      dup1\n      revert\n        /* \"contracts/sample2_mapping.sol\":657:755  function isRegistered()public view returns(bool){\r... */\n    tag_3:\n      tag_7\n      tag_8\n      jump\t// in\n    tag_7:\n      mload(0x40)\n      tag_9\n      swap2\n      swap1\n      tag_10\n      jump\t// in\n    tag_9:\n      mload(0x40)\n      dup1\n      swap2\n      sub\n      swap1\n      return\n        /* \"contracts/sample2_mapping.sol\":548:592  mapping (address => bool ) public registered */\n    tag_4:\n      tag_11\n      0x04\n      dup1\n      calldatasize\n      sub\n      dup2\n      add\n      swap1\n      tag_12\n      swap2\n      swap1\n      tag_13\n      jump\t// in\n    tag_12:\n      tag_14\n      jump\t// in\n    tag_11:\n      mload(0x40)\n      tag_15\n      swap2\n      swap1\n      tag_10\n      jump\t// in\n    tag_15:\n      mload(0x40)\n      dup1\n      swap2\n      sub\n      swap1\n      return\n        /* \"contracts/sample2_mapping.sol\":605:648  mapping (address => int256 ) public favNums */\n    tag_5:\n      tag_16\n      0x04\n      dup1\n      calldatasize\n      sub\n      dup2\n      add\n      swap1\n      tag_17\n      swap2\n      swap1\n      tag_13\n      jump\t// in\n    tag_17:\n      tag_18\n      jump\t// in\n    tag_16:\n      mload(0x40)\n      tag_19\n      swap2\n      swap1\n      tag_20\n      jump\t// in\n    tag_19:\n      mload(0x40)\n      dup1\n      swap2\n      sub\n      swap1\n      return\n        /* \"contracts/sample2_mapping.sol\":763:962  function register(int256 _favNum)public{\r... */\n    tag_6:\n      tag_21\n      0x04\n      dup1\n      calldatasize\n      sub\n      dup2\n      add\n      swap1\n      tag_22\n      swap2\n      swap1\n      tag_23\n      jump\t// in\n    tag_22:\n      tag_24\n      jump\t// in\n    tag_21:\n      stop\n        /* \"contracts/sample2_mapping.sol\":657:755  function isRegistered()public view returns(bool){\r... */\n    tag_8:\n        /* \"contracts/sample2_mapping.sol\":700:704  bool */\n      0x00\n        /* \"contracts/sample2_mapping.sol\":723:733  registered */\n      dup1\n        /* \"contracts/sample2_mapping.sol\":723:745  registered[msg.sender] */\n      0x00\n        /* \"contracts/sample2_mapping.sol\":734:744  msg.sender */\n      caller\n        /* \"contracts/sample2_mapping.sol\":723:745  registered[msg.sender] */\n      0xffffffffffffffffffffffffffffffffffffffff\n      and\n      0xffffffffffffffffffffffffffffffffffffffff\n      and\n      dup2\n      mstore\n      0x20\n      add\n      swap1\n      dup2\n      mstore\n      0x20\n      add\n      0x00\n      keccak256\n      0x00\n      swap1\n      sload\n      swap1\n      0x0100\n      exp\n      swap1\n      div\n      0xff\n      and\n        /* \"contracts/sample2_mapping.sol\":716:745  return registered[msg.sender] */\n      swap1\n      pop\n        /* \"contracts/sample2_mapping.sol\":657:755  function isRegistered()public view returns(bool){\r... */\n      swap1\n      jump\t// out\n        /* \"contracts/sample2_mapping.sol\":548:592  mapping (address => bool ) public registered */\n    tag_14:\n      mstore(0x20, 0x00)\n      dup1\n      0x00\n      mstore\n      keccak256(0x00, 0x40)\n      0x00\n      swap2\n      pop\n      sload\n      swap1\n      0x0100\n      exp\n      swap1\n      div\n      0xff\n      and\n      dup2\n      jump\t// out\n        /* \"contracts/sample2_mapping.sol\":605:648  mapping (address => int256 ) public favNums */\n    tag_18:\n      mstore(0x20, 0x01)\n      dup1\n      0x00\n      mstore\n      keccak256(0x00, 0x40)\n      0x00\n      swap2\n      pop\n      swap1\n      pop\n      sload\n      dup2\n      jump\t// out\n        /* \"contracts/sample2_mapping.sol\":763:962  function register(int256 _favNum)public{\r... */\n    tag_24:\n        /* \"contracts/sample2_mapping.sol\":822:836  isRegistered() */\n      tag_27\n        /* \"contracts/sample2_mapping.sol\":822:834  isRegistered */\n      tag_8\n        /* \"contracts/sample2_mapping.sol\":822:836  isRegistered() */\n      jump\t// in\n    tag_27:\n        /* \"contracts/sample2_mapping.sol\":821:836  !isRegistered() */\n      iszero\n        /* \"contracts/sample2_mapping.sol\":813:877  require(!isRegistered(),\"Kullanici kaydiniz daha once yapildi.\") */\n      tag_28\n      jumpi\n      mload(0x40)\n      0x08c379a000000000000000000000000000000000000000000000000000000000\n      dup2\n      mstore\n      0x04\n      add\n      tag_29\n      swap1\n      tag_30\n      jump\t// in\n    tag_29:\n      mload(0x40)\n      dup1\n      swap2\n      sub\n      swap1\n      revert\n    tag_28:\n        /* \"contracts/sample2_mapping.sol\":912:916  true */\n      0x01\n        /* \"contracts/sample2_mapping.sol\":888:916  registered[msg.sender]==true */\n      iszero\n      iszero\n        /* \"contracts/sample2_mapping.sol\":888:898  registered */\n      0x00\n        /* \"contracts/sample2_mapping.sol\":888:910  registered[msg.sender] */\n      dup1\n        /* \"contracts/sample2_mapping.sol\":899:909  msg.sender */\n      caller\n        /* \"contracts/sample2_mapping.sol\":888:910  registered[msg.sender] */\n      0xffffffffffffffffffffffffffffffffffffffff\n      and\n      0xffffffffffffffffffffffffffffffffffffffff\n      and\n      dup2\n      mstore\n      0x20\n      add\n      swap1\n      dup2\n      mstore\n      0x20\n      add\n      0x00\n      keccak256\n      0x00\n      swap1\n      sload\n      swap1\n      0x0100\n      exp\n      swap1\n      pop\n      pop\n        /* \"contracts/sample2_mapping.sol\":888:916  registered[msg.sender]==true */\n      pop\n        /* \"contracts/sample2_mapping.sol\":947:954  _favNum */\n      dup1\n        /* \"contracts/sample2_mapping.sol\":927:934  favNums */\n      0x01\n        /* \"contracts/sample2_mapping.sol\":927:946  favNums[msg.sender] */\n      0x00\n        /* \"contracts/sample2_mapping.sol\":935:945  msg.sender */\n      caller\n        /* \"contracts/sample2_mapping.sol\":927:946  favNums[msg.sender] */\n      0xffffffffffffffffffffffffffffffffffffffff\n      and\n      0xffffffffffffffffffffffffffffffffffffffff\n      and\n      dup2\n      mstore\n      0x20\n      add\n      swap1\n      dup2\n      mstore\n      0x20\n      add\n      0x00\n      keccak256\n        /* \"contracts/sample2_mapping.sol\":927:954  favNums[msg.sender]=_favNum */\n      dup2\n      swap1\n      sstore\n      pop\n        /* \"contracts/sample2_mapping.sol\":763:962  function register(int256 _favNum)public{\r... */\n      pop\n      jump\t// out\n        /* \"#utility.yul\":7:146   */\n    tag_32:\n        /* \"#utility.yul\":53:58   */\n      0x00\n        /* \"#utility.yul\":91:97   */\n      dup2\n        /* \"#utility.yul\":78:98   */\n      calldataload\n        /* \"#utility.yul\":69:98   */\n      swap1\n      pop\n        /* \"#utility.yul\":107:140   */\n      tag_34\n        /* \"#utility.yul\":134:139   */\n      dup2\n        /* \"#utility.yul\":107:140   */\n      tag_35\n      jump\t// in\n    tag_34:\n        /* \"#utility.yul\":7:146   */\n      swap3\n      swap2\n      pop\n      pop\n      jump\t// out\n        /* \"#utility.yul\":152:289   */\n    tag_36:\n        /* \"#utility.yul\":197:202   */\n      0x00\n        /* \"#utility.yul\":235:241   */\n      dup2\n        /* \"#utility.yul\":222:242   */\n      calldataload\n        /* \"#utility.yul\":213:242   */\n      swap1\n      pop\n        /* \"#utility.yul\":251:283   */\n      tag_38\n        /* \"#utility.yul\":277:282   */\n      dup2\n        /* \"#utility.yul\":251:283   */\n      tag_39\n      jump\t// in\n    tag_38:\n        /* \"#utility.yul\":152:289   */\n      swap3\n      swap2\n      pop\n      pop\n      jump\t// out\n        /* \"#utility.yul\":295:624   */\n    tag_13:\n        /* \"#utility.yul\":354:360   */\n      0x00\n        /* \"#utility.yul\":403:405   */\n      0x20\n        /* \"#utility.yul\":391:400   */\n      dup3\n        /* \"#utility.yul\":382:389   */\n      dup5\n        /* \"#utility.yul\":378:401   */\n      sub\n        /* \"#utility.yul\":374:406   */\n      slt\n        /* \"#utility.yul\":371:490   */\n      iszero\n      tag_41\n      jumpi\n        /* \"#utility.yul\":409:488   */\n      tag_42\n      tag_43\n      jump\t// in\n    tag_42:\n        /* \"#utility.yul\":371:490   */\n    tag_41:\n        /* \"#utility.yul\":529:530   */\n      0x00\n        /* \"#utility.yul\":554:607   */\n      tag_44\n        /* \"#utility.yul\":599:606   */\n      dup5\n        /* \"#utility.yul\":590:596   */\n      dup3\n        /* \"#utility.yul\":579:588   */\n      dup6\n        /* \"#utility.yul\":575:597   */\n      add\n        /* \"#utility.yul\":554:607   */\n      tag_32\n      jump\t// in\n    tag_44:\n        /* \"#utility.yul\":544:607   */\n      swap2\n      pop\n        /* \"#utility.yul\":500:617   */\n      pop\n        /* \"#utility.yul\":295:624   */\n      swap3\n      swap2\n      pop\n      pop\n      jump\t// out\n        /* \"#utility.yul\":630:957   */\n    tag_23:\n        /* \"#utility.yul\":688:694   */\n      0x00\n        /* \"#utility.yul\":737:739   */\n      0x20\n        /* \"#utility.yul\":725:734   */\n      dup3\n        /* \"#utility.yul\":716:723   */\n      dup5\n        /* \"#utility.yul\":712:735   */\n      sub\n        /* \"#utility.yul\":708:740   */\n      slt\n        /* \"#utility.yul\":705:824   */\n      iszero\n      tag_46\n      jumpi\n        /* \"#utility.yul\":743:822   */\n      tag_47\n      tag_43\n      jump\t// in\n    tag_47:\n        /* \"#utility.yul\":705:824   */\n    tag_46:\n        /* \"#utility.yul\":863:864   */\n      0x00\n        /* \"#utility.yul\":888:940   */\n      tag_48\n        /* \"#utility.yul\":932:939   */\n      dup5\n        /* \"#utility.yul\":923:929   */\n      dup3\n        /* \"#utility.yul\":912:921   */\n      dup6\n        /* \"#utility.yul\":908:930   */\n      add\n        /* \"#utility.yul\":888:940   */\n      tag_36\n      jump\t// in\n    tag_48:\n        /* \"#utility.yul\":878:940   */\n      swap2\n      pop\n        /* \"#utility.yul\":834:950   */\n      pop\n        /* \"#utility.yul\":630:957   */\n      swap3\n      swap2\n      pop\n      pop\n      jump\t// out\n        /* \"#utility.yul\":963:1072   */\n    tag_49:\n        /* \"#utility.yul\":1044:1065   */\n      tag_51\n        /* \"#utility.yul\":1059:1064   */\n      dup2\n        /* \"#utility.yul\":1044:1065   */\n      tag_52\n      jump\t// in\n    tag_51:\n        /* \"#utility.yul\":1039:1042   */\n      dup3\n        /* \"#utility.yul\":1032:1066   */\n      mstore\n        /* \"#utility.yul\":963:1072   */\n      pop\n      pop\n      jump\t// out\n        /* \"#utility.yul\":1078:1193   */\n    tag_53:\n        /* \"#utility.yul\":1163:1186   */\n      tag_55\n        /* \"#utility.yul\":1180:1185   */\n      dup2\n        /* \"#utility.yul\":1163:1186   */\n      tag_56\n      jump\t// in\n    tag_55:\n        /* \"#utility.yul\":1158:1161   */\n      dup3\n        /* \"#utility.yul\":1151:1187   */\n      mstore\n        /* \"#utility.yul\":1078:1193   */\n      pop\n      pop\n      jump\t// out\n        /* \"#utility.yul\":1199:1565   */\n    tag_57:\n        /* \"#utility.yul\":1341:1344   */\n      0x00\n        /* \"#utility.yul\":1362:1429   */\n      tag_59\n        /* \"#utility.yul\":1426:1428   */\n      0x25\n        /* \"#utility.yul\":1421:1424   */\n      dup4\n        /* \"#utility.yul\":1362:1429   */\n      tag_60\n      jump\t// in\n    tag_59:\n        /* \"#utility.yul\":1355:1429   */\n      swap2\n      pop\n        /* \"#utility.yul\":1438:1531   */\n      tag_61\n        /* \"#utility.yul\":1527:1530   */\n      dup3\n        /* \"#utility.yul\":1438:1531   */\n      tag_62\n      jump\t// in\n    tag_61:\n        /* \"#utility.yul\":1556:1558   */\n      0x40\n        /* \"#utility.yul\":1551:1554   */\n      dup3\n        /* \"#utility.yul\":1547:1559   */\n      add\n        /* \"#utility.yul\":1540:1559   */\n      swap1\n      pop\n        /* \"#utility.yul\":1199:1565   */\n      swap2\n      swap1\n      pop\n      jump\t// out\n        /* \"#utility.yul\":1571:1781   */\n    tag_10:\n        /* \"#utility.yul\":1658:1662   */\n      0x00\n        /* \"#utility.yul\":1696:1698   */\n      0x20\n        /* \"#utility.yul\":1685:1694   */\n      dup3\n        /* \"#utility.yul\":1681:1699   */\n      add\n        /* \"#utility.yul\":1673:1699   */\n      swap1\n      pop\n        /* \"#utility.yul\":1709:1774   */\n      tag_64\n        /* \"#utility.yul\":1771:1772   */\n      0x00\n        /* \"#utility.yul\":1760:1769   */\n      dup4\n        /* \"#utility.yul\":1756:1773   */\n      add\n        /* \"#utility.yul\":1747:1753   */\n      dup5\n        /* \"#utility.yul\":1709:1774   */\n      tag_49\n      jump\t// in\n    tag_64:\n        /* \"#utility.yul\":1571:1781   */\n      swap3\n      swap2\n      pop\n      pop\n      jump\t// out\n        /* \"#utility.yul\":1787:2005   */\n    tag_20:\n        /* \"#utility.yul\":1878:1882   */\n      0x00\n        /* \"#utility.yul\":1916:1918   */\n      0x20\n        /* \"#utility.yul\":1905:1914   */\n      dup3\n        /* \"#utility.yul\":1901:1919   */\n      add\n        /* \"#utility.yul\":1893:1919   */\n      swap1\n      pop\n        /* \"#utility.yul\":1929:1998   */\n      tag_66\n        /* \"#utility.yul\":1995:1996   */\n      0x00\n        /* \"#utility.yul\":1984:1993   */\n      dup4\n        /* \"#utility.yul\":1980:1997   */\n      add\n        /* \"#utility.yul\":1971:1977   */\n      dup5\n        /* \"#utility.yul\":1929:1998   */\n      tag_53\n      jump\t// in\n    tag_66:\n        /* \"#utility.yul\":1787:2005   */\n      swap3\n      swap2\n      pop\n      pop\n      jump\t// out\n        /* \"#utility.yul\":2011:2430   */\n    tag_30:\n        /* \"#utility.yul\":2177:2181   */\n      0x00\n        /* \"#utility.yul\":2215:2217   */\n      0x20\n        /* \"#utility.yul\":2204:2213   */\n      dup3\n        /* \"#utility.yul\":2200:2218   */\n      add\n        /* \"#utility.yul\":2192:2218   */\n      swap1\n      pop\n        /* \"#utility.yul\":2264:2273   */\n      dup2\n        /* \"#utility.yul\":2258:2262   */\n      dup2\n        /* \"#utility.yul\":2254:2274   */\n      sub\n        /* \"#utility.yul\":2250:2251   */\n      0x00\n        /* \"#utility.yul\":2239:2248   */\n      dup4\n        /* \"#utility.yul\":2235:2252   */\n      add\n        /* \"#utility.yul\":2228:2275   */\n      mstore\n        /* \"#utility.yul\":2292:2423   */\n      tag_68\n        /* \"#utility.yul\":2418:2422   */\n      dup2\n        /* \"#utility.yul\":2292:2423   */\n      tag_57\n      jump\t// in\n    tag_68:\n        /* \"#utility.yul\":2284:2423   */\n      swap1\n      pop\n        /* \"#utility.yul\":2011:2430   */\n      swap2\n      swap1\n      pop\n      jump\t// out\n        /* \"#utility.yul\":2517:2686   */\n    tag_60:\n        /* \"#utility.yul\":2601:2612   */\n      0x00\n        /* \"#utility.yul\":2635:2641   */\n      dup3\n        /* \"#utility.yul\":2630:2633   */\n      dup3\n        /* \"#utility.yul\":2623:2642   */\n      mstore\n        /* \"#utility.yul\":2675:2679   */\n      0x20\n        /* \"#utility.yul\":2670:2673   */\n      dup3\n        /* \"#utility.yul\":2666:2680   */\n      add\n        /* \"#utility.yul\":2651:2680   */\n      swap1\n      pop\n        /* \"#utility.yul\":2517:2686   */\n      swap3\n      swap2\n      pop\n      pop\n      jump\t// out\n        /* \"#utility.yul\":2692:2788   */\n    tag_72:\n        /* \"#utility.yul\":2729:2736   */\n      0x00\n        /* \"#utility.yul\":2758:2782   */\n      tag_74\n        /* \"#utility.yul\":2776:2781   */\n      dup3\n        /* \"#utility.yul\":2758:2782   */\n      tag_75\n      jump\t// in\n    tag_74:\n        /* \"#utility.yul\":2747:2782   */\n      swap1\n      pop\n        /* \"#utility.yul\":2692:2788   */\n      swap2\n      swap1\n      pop\n      jump\t// out\n        /* \"#utility.yul\":2794:2884   */\n    tag_52:\n        /* \"#utility.yul\":2828:2835   */\n      0x00\n        /* \"#utility.yul\":2871:2876   */\n      dup2\n        /* \"#utility.yul\":2864:2877   */\n      iszero\n        /* \"#utility.yul\":2857:2878   */\n      iszero\n        /* \"#utility.yul\":2846:2878   */\n      swap1\n      pop\n        /* \"#utility.yul\":2794:2884   */\n      swap2\n      swap1\n      pop\n      jump\t// out\n        /* \"#utility.yul\":2890:2966   */\n    tag_56:\n        /* \"#utility.yul\":2926:2933   */\n      0x00\n        /* \"#utility.yul\":2955:2960   */\n      dup2\n        /* \"#utility.yul\":2944:2960   */\n      swap1\n      pop\n        /* \"#utility.yul\":2890:2966   */\n      swap2\n      swap1\n      pop\n      jump\t// out\n        /* \"#utility.yul\":2972:3098   */\n    tag_75:\n        /* \"#utility.yul\":3009:3016   */\n      0x00\n        /* \"#utility.yul\":3049:3091   */\n      0xffffffffffffffffffffffffffffffffffffffff\n        /* \"#utility.yul\":3042:3047   */\n      dup3\n        /* \"#utility.yul\":3038:3092   */\n      and\n        /* \"#utility.yul\":3027:3092   */\n      swap1\n      pop\n        /* \"#utility.yul\":2972:3098   */\n      swap2\n      swap1\n      pop\n      jump\t// out\n        /* \"#utility.yul\":3227:3344   */\n    tag_43:\n        /* \"#utility.yul\":3336:3337   */\n      0x00\n        /* \"#utility.yul\":3333:3334   */\n      dup1\n        /* \"#utility.yul\":3326:3338   */\n      revert\n        /* \"#utility.yul\":3350:3574   */\n    tag_62:\n        /* \"#utility.yul\":3490:3524   */\n      0x4b756c6c616e696369206b617964696e697a2064616861206f6e636520796170\n        /* \"#utility.yul\":3486:3487   */\n      0x00\n        /* \"#utility.yul\":3478:3484   */\n      dup3\n        /* \"#utility.yul\":3474:3488   */\n      add\n        /* \"#utility.yul\":3467:3525   */\n      mstore\n        /* \"#utility.yul\":3559:3566   */\n      0x696c64692e000000000000000000000000000000000000000000000000000000\n        /* \"#utility.yul\":3554:3556   */\n      0x20\n        /* \"#utility.yul\":3546:3552   */\n      dup3\n        /* \"#utility.yul\":3542:3557   */\n      add\n        /* \"#utility.yul\":3535:3567   */\n      mstore\n        /* \"#utility.yul\":3350:3574   */\n      pop\n      jump\t// out\n        /* \"#utility.yul\":3580:3702   */\n    tag_35:\n        /* \"#utility.yul\":3653:3677   */\n      tag_84\n        /* \"#utility.yul\":3671:3676   */\n      dup2\n        /* \"#utility.yul\":3653:3677   */\n      tag_72\n      jump\t// in\n    tag_84:\n        /* \"#utility.yul\":3646:3651   */\n      dup2\n        /* \"#utility.yul\":3643:3678   */\n      eq\n        /* \"#utility.yul\":3633:3696   */\n      tag_85\n      jumpi\n        /* \"#utility.yul\":3692:3693   */\n      0x00\n        /* \"#utility.yul\":3689:3690   */\n      dup1\n        /* \"#utility.yul\":3682:3694   */\n      revert\n        /* \"#utility.yul\":3633:3696   */\n    tag_85:\n        /* \"#utility.yul\":3580:3702   */\n      pop\n      jump\t// out\n        /* \"#utility.yul\":3708:3828   */\n    tag_39:\n        /* \"#utility.yul\":3780:3803   */\n      tag_87\n        /* \"#utility.yul\":3797:3802   */\n      dup2\n        /* \"#utility.yul\":3780:3803   */\n      tag_56\n      jump\t// in\n    tag_87:\n        /* \"#utility.yul\":3773:3778   */\n      dup2\n        /* \"#utility.yul\":3770:3804   */\n      eq\n        /* \"#utility.yul\":3760:3822   */\n      tag_88\n      jumpi\n        /* \"#utility.yul\":3818:3819   */\n      0x00\n        /* \"#utility.yul\":3815:3816   */\n      dup1\n        /* \"#utility.yul\":3808:3820   */\n      revert\n        /* \"#utility.yul\":3760:3822   */\n    tag_88:\n        /* \"#utility.yul\":3708:3828   */\n      pop\n      jump\t// out\n\n    auxdata: 0xa26469706673582212202e283550cbfb36ebc7840cea610516093c83fae47e05bc163f4e7bdd461b5d6a64736f6c63430008070033\n}\n",
				"bytecode": {
					"linkReferences": {},
					"object": "608060405234801561001057600080fd5b50610480806100206000396000f3fe608060405234801561001057600080fd5b506004361061004c5760003560e01c80632236684414610051578063b2dd5c071461006f578063cce0b6a11461009f578063e6059f96146100cf575b600080fd5b6100596100eb565b6040516100669190610319565b60405180910390f35b6100896004803603810190610084919061027e565b61013e565b6040516100969190610319565b60405180910390f35b6100b960048036038101906100b4919061027e565b61015e565b6040516100c69190610334565b60405180910390f35b6100e960048036038101906100e491906102ab565b610176565b005b60008060003373ffffffffffffffffffffffffffffffffffffffff1673ffffffffffffffffffffffffffffffffffffffff16815260200190815260200160002060009054906101000a900460ff16905090565b60006020528060005260406000206000915054906101000a900460ff1681565b60016020528060005260406000206000915090505481565b61017e6100eb565b156101be576040517f08c379a00000000000000000000000000000000000000000000000000000000081526004016101b59061034f565b60405180910390fd5b600115156000803373ffffffffffffffffffffffffffffffffffffffff1673ffffffffffffffffffffffffffffffffffffffff16815260200190815260200160002060009054906101000a9050505080600160003373ffffffffffffffffffffffffffffffffffffffff1673ffffffffffffffffffffffffffffffffffffffff1681526020019081526020016000208190555050565b6000813590506102638161041c565b92915050565b60008135905061027881610433565b92915050565b600060208284031215610294576102936103c8565b5b60006102a284828501610254565b91505092915050565b6000602082840312156102c1576102c06103c8565b5b60006102cf84828501610269565b91505092915050565b6102e181610392565b82525050565b6102f08161039e565b82525050565b600061030360258361036f565b915061030e826103cd565b604082019050919050565b600060208201905061032e60008301846102d8565b92915050565b600060208201905061034960008301846102e7565b92915050565b60006020820190508181036000830152610368816102f6565b9050919050565b600082825260208201905092915050565b600061038b826103a8565b9050919050565b60008115159050919050565b6000819050919050565b600073ffffffffffffffffffffffffffffffffffffffff82169050919050565b600080fd5b7f4b756c6c616e696369206b617964696e697a2064616861206f6e63652079617060008201527f696c64692e000000000000000000000000000000000000000000000000000000602082015250565b61042581610380565b811461043057600080fd5b50565b61043c8161039e565b811461044757600080fd5b5056fea26469706673582212202e283550cbfb36ebc7840cea610516093c83fae47e05bc163f4e7bdd461b5d6a64736f6c63430008070033",
					"opcodes": "PUSH1 0x80 PUSH1 0x40 MSTORE CALLVALUE DUP1 ISZERO PUSH2 0x10 JUMPI PUSH1 0x0 DUP1 REVERT JUMPDEST POP PUSH2 0x480 DUP1 PUSH2 0x20 PUSH1 0x0 CODECOPY PUSH1 0x0 RETURN INVALID PUSH1 0x80 PUSH1 0x40 MSTORE CALLVALUE DUP1 ISZERO PUSH2 0x10 JUMPI PUSH1 0x0 DUP1 REVERT JUMPDEST POP PUSH1 0x4 CALLDATASIZE LT PUSH2 0x4C JUMPI PUSH1 0x0 CALLDATALOAD PUSH1 0xE0 SHR DUP1 PUSH4 0x22366844 EQ PUSH2 0x51 JUMPI DUP1 PUSH4 0xB2DD5C07 EQ PUSH2 0x6F JUMPI DUP1 PUSH4 0xCCE0B6A1 EQ PUSH2 0x9F JUMPI DUP1 PUSH4 0xE6059F96 EQ PUSH2 0xCF JUMPI JUMPDEST PUSH1 0x0 DUP1 REVERT JUMPDEST PUSH2 0x59 PUSH2 0xEB JUMP JUMPDEST PUSH1 0x40 MLOAD PUSH2 0x66 SWAP2 SWAP1 PUSH2 0x319 JUMP JUMPDEST PUSH1 0x40 MLOAD DUP1 SWAP2 SUB SWAP1 RETURN JUMPDEST PUSH2 0x89 PUSH1 0x4 DUP1 CALLDATASIZE SUB DUP2 ADD SWAP1 PUSH2 0x84 SWAP2 SWAP1 PUSH2 0x27E JUMP JUMPDEST PUSH2 0x13E JUMP JUMPDEST PUSH1 0x40 MLOAD PUSH2 0x96 SWAP2 SWAP1 PUSH2 0x319 JUMP JUMPDEST PUSH1 0x40 MLOAD DUP1 SWAP2 SUB SWAP1 RETURN JUMPDEST PUSH2 0xB9 PUSH1 0x4 DUP1 CALLDATASIZE SUB DUP2 ADD SWAP1 PUSH2 0xB4 SWAP2 SWAP1 PUSH2 0x27E JUMP JUMPDEST PUSH2 0x15E JUMP JUMPDEST PUSH1 0x40 MLOAD PUSH2 0xC6 SWAP2 SWAP1 PUSH2 0x334 JUMP JUMPDEST PUSH1 0x40 MLOAD DUP1 SWAP2 SUB SWAP1 RETURN JUMPDEST PUSH2 0xE9 PUSH1 0x4 DUP1 CALLDATASIZE SUB DUP2 ADD SWAP1 PUSH2 0xE4 SWAP2 SWAP1 PUSH2 0x2AB JUMP JUMPDEST PUSH2 0x176 JUMP JUMPDEST STOP JUMPDEST PUSH1 0x0 DUP1 PUSH1 0x0 CALLER PUSH20 0xFFFFFFFFFFFFFFFFFFFFFFFFFFFFFFFFFFFFFFFF AND PUSH20 0xFFFFFFFFFFFFFFFFFFFFFFFFFFFFFFFFFFFFFFFF AND DUP2 MSTORE PUSH1 0x20 ADD SWAP1 DUP2 MSTORE PUSH1 0x20 ADD PUSH1 0x0 KECCAK256 PUSH1 0x0 SWAP1 SLOAD SWAP1 PUSH2 0x100 EXP SWAP1 DIV PUSH1 0xFF AND SWAP1 POP SWAP1 JUMP JUMPDEST PUSH1 0x0 PUSH1 0x20 MSTORE DUP1 PUSH1 0x0 MSTORE PUSH1 0x40 PUSH1 0x0 KECCAK256 PUSH1 0x0 SWAP2 POP SLOAD SWAP1 PUSH2 0x100 EXP SWAP1 DIV PUSH1 0xFF AND DUP2 JUMP JUMPDEST PUSH1 0x1 PUSH1 0x20 MSTORE DUP1 PUSH1 0x0 MSTORE PUSH1 0x40 PUSH1 0x0 KECCAK256 PUSH1 0x0 SWAP2 POP SWAP1 POP SLOAD DUP2 JUMP JUMPDEST PUSH2 0x17E PUSH2 0xEB JUMP JUMPDEST ISZERO PUSH2 0x1BE JUMPI PUSH1 0x40 MLOAD PUSH32 0x8C379A000000000000000000000000000000000000000000000000000000000 DUP2 MSTORE PUSH1 0x4 ADD PUSH2 0x1B5 SWAP1 PUSH2 0x34F JUMP JUMPDEST PUSH1 0x40 MLOAD DUP1 SWAP2 SUB SWAP1 REVERT JUMPDEST PUSH1 0x1 ISZERO ISZERO PUSH1 0x0 DUP1 CALLER PUSH20 0xFFFFFFFFFFFFFFFFFFFFFFFFFFFFFFFFFFFFFFFF AND PUSH20 0xFFFFFFFFFFFFFFFFFFFFFFFFFFFFFFFFFFFFFFFF AND DUP2 MSTORE PUSH1 0x20 ADD SWAP1 DUP2 MSTORE PUSH1 0x20 ADD PUSH1 0x0 KECCAK256 PUSH1 0x0 SWAP1 SLOAD SWAP1 PUSH2 0x100 EXP SWAP1 POP POP POP DUP1 PUSH1 0x1 PUSH1 0x0 CALLER PUSH20 0xFFFFFFFFFFFFFFFFFFFFFFFFFFFFFFFFFFFFFFFF AND PUSH20 0xFFFFFFFFFFFFFFFFFFFFFFFFFFFFFFFFFFFFFFFF AND DUP2 MSTORE PUSH1 0x20 ADD SWAP1 DUP2 MSTORE PUSH1 0x20 ADD PUSH1 0x0 KECCAK256 DUP2 SWAP1 SSTORE POP POP JUMP JUMPDEST PUSH1 0x0 DUP2 CALLDATALOAD SWAP1 POP PUSH2 0x263 DUP2 PUSH2 0x41C JUMP JUMPDEST SWAP3 SWAP2 POP POP JUMP JUMPDEST PUSH1 0x0 DUP2 CALLDATALOAD SWAP1 POP PUSH2 0x278 DUP2 PUSH2 0x433 JUMP JUMPDEST SWAP3 SWAP2 POP POP JUMP JUMPDEST PUSH1 0x0 PUSH1 0x20 DUP3 DUP5 SUB SLT ISZERO PUSH2 0x294 JUMPI PUSH2 0x293 PUSH2 0x3C8 JUMP JUMPDEST JUMPDEST PUSH1 0x0 PUSH2 0x2A2 DUP5 DUP3 DUP6 ADD PUSH2 0x254 JUMP JUMPDEST SWAP2 POP POP SWAP3 SWAP2 POP POP JUMP JUMPDEST PUSH1 0x0 PUSH1 0x20 DUP3 DUP5 SUB SLT ISZERO PUSH2 0x2C1 JUMPI PUSH2 0x2C0 PUSH2 0x3C8 JUMP JUMPDEST JUMPDEST PUSH1 0x0 PUSH2 0x2CF DUP5 DUP3 DUP6 ADD PUSH2 0x269 JUMP JUMPDEST SWAP2 POP POP SWAP3 SWAP2 POP POP JUMP JUMPDEST PUSH2 0x2E1 DUP2 PUSH2 0x392 JUMP JUMPDEST DUP3 MSTORE POP POP JUMP JUMPDEST PUSH2 0x2F0 DUP2 PUSH2 0x39E JUMP JUMPDEST DUP3 MSTORE POP POP JUMP JUMPDEST PUSH1 0x0 PUSH2 0x303 PUSH1 0x25 DUP4 PUSH2 0x36F JUMP JUMPDEST SWAP2 POP PUSH2 0x30E DUP3 PUSH2 0x3CD JUMP JUMPDEST PUSH1 0x40 DUP3 ADD SWAP1 POP SWAP2 SWAP1 POP JUMP JUMPDEST PUSH1 0x0 PUSH1 0x20 DUP3 ADD SWAP1 POP PUSH2 0x32E PUSH1 0x0 DUP4 ADD DUP5 PUSH2 0x2D8 JUMP JUMPDEST SWAP3 SWAP2 POP POP JUMP JUMPDEST PUSH1 0x0 PUSH1 0x20 DUP3 ADD SWAP1 POP PUSH2 0x349 PUSH1 0x0 DUP4 ADD DUP5 PUSH2 0x2E7 JUMP JUMPDEST SWAP3 SWAP2 POP POP JUMP JUMPDEST PUSH1 0x0 PUSH1 0x20 DUP3 ADD SWAP1 POP DUP2 DUP2 SUB PUSH1 0x0 DUP4 ADD MSTORE PUSH2 0x368 DUP2 PUSH2 0x2F6 JUMP JUMPDEST SWAP1 POP SWAP2 SWAP1 POP JUMP JUMPDEST PUSH1 0x0 DUP3 DUP3 MSTORE PUSH1 0x20 DUP3 ADD SWAP1 POP SWAP3 SWAP2 POP POP JUMP JUMPDEST PUSH1 0x0 PUSH2 0x38B DUP3 PUSH2 0x3A8 JUMP JUMPDEST SWAP1 POP SWAP2 SWAP1 POP JUMP JUMPDEST PUSH1 0x0 DUP2 ISZERO ISZERO SWAP1 POP SWAP2 SWAP1 POP JUMP JUMPDEST PUSH1 0x0 DUP2 SWAP1 POP SWAP2 SWAP1 POP JUMP JUMPDEST PUSH1 0x0 PUSH20 0xFFFFFFFFFFFFFFFFFFFFFFFFFFFFFFFFFFFFFFFF DUP3 AND SWAP1 POP SWAP2 SWAP1 POP JUMP JUMPDEST PUSH1 0x0 DUP1 REVERT JUMPDEST PUSH32 0x4B756C6C616E696369206B617964696E697A2064616861206F6E636520796170 PUSH1 0x0 DUP3 ADD MSTORE PUSH32 0x696C64692E000000000000000000000000000000000000000000000000000000 PUSH1 0x20 DUP3 ADD MSTORE POP JUMP JUMPDEST PUSH2 0x425 DUP2 PUSH2 0x380 JUMP JUMPDEST DUP2 EQ PUSH2 0x430 JUMPI PUSH1 0x0 DUP1 REVERT JUMPDEST POP JUMP JUMPDEST PUSH2 0x43C DUP2 PUSH2 0x39E JUMP JUMPDEST DUP2 EQ PUSH2 0x447 JUMPI PUSH1 0x0 DUP1 REVERT JUMPDEST POP JUMP INVALID LOG2 PUSH5 0x6970667358 0x22 SLT KECCAK256 0x2E 0x28 CALLDATALOAD POP 0xCB 0xFB CALLDATASIZE 0xEB 0xC7 DUP5 0xC 0xEA PUSH2 0x516 MULMOD EXTCODECOPY DUP4 STATICCALL 0xE4 PUSH31 0x5BC163F4E7BDD461B5D6A64736F6C63430008070033000000000000000000 "
				},
				"gasEstimates": {
					"creation": {
						"codeDepositCost": "230400",
						"executionCost": "269",
						"totalCost": "230669"
					},
					"external": {
						"favNums(address)": "2836",
						"isRegistered()": "2546",
						"register(int256)": "27165",
						"registered(address)": "2845"
					}
				},
				"methodIdentifiers": {
					"favNums(address)": "cce0b6a1",
					"isRegistered()": "22366844",
					"register(int256)": "e6059f96",
					"registered(address)": "b2dd5c07"
				}
			},
			"storageLayout": {
				"storage": [
					{
						"astId": 5,
						"contract": "contracts/sample2_mapping.sol:Mapper",
						"label": "registered",
						"offset": 0,
						"slot": "0",
						"type": "t_mapping(t_address,t_bool)"
					},
					{
						"astId": 9,
						"contract": "contracts/sample2_mapping.sol:Mapper",
						"label": "favNums",
						"offset": 0,
						"slot": "1",
						"type": "t_mapping(t_address,t_int256)"
					}
				],
				"types": {
					"t_address": {
						"encoding": "inplace",
						"label": "address",
						"numberOfBytes": "20"
					},
					"t_bool": {
						"encoding": "inplace",
						"label": "bool",
						"numberOfBytes": "1"
					},
					"t_int256": {
						"encoding": "inplace",
						"label": "int256",
						"numberOfBytes": "32"
					},
					"t_mapping(t_address,t_bool)": {
						"encoding": "mapping",
						"key": "t_address",
						"label": "mapping(address => bool)",
						"numberOfBytes": "32",
						"value": "t_bool"
					},
					"t_mapping(t_address,t_int256)": {
						"encoding": "mapping",
						"key": "t_address",
						"label": "mapping(address => int256)",
						"numberOfBytes": "32",
						"value": "t_int256"
					}
				}
			},
			"userdoc": {
				"kind": "user",
				"methods": {},
				"version": 1
			}
		}
	}
}